:100000000EC015C014C013C012C011C010C00FC064
:100010000EC00DC00CC00BC00AC009C008C011241E
:100020001FBECFE5D2E0DEBFCDBF02D085C0E8CF96
:10003000379A87B38C6087BB82E087B9C4E0369A71
:100040003699FECF64B185B170E0782B072E000C95
:10005000880B990B0ED020E030E040E251E444D010
:10006000181614F4C39801C0C39AC6BBE8CFE8942D
:1000700009C097FB3EF490958095709561957F4FF0
:100080008F4F9F4F9923A9F0F92F96E9BB2793959E
:10009000F695879577956795B795F111F8CFFAF4AE
:1000A000BB0F11F460FF1BC06F5F7F4F8F4F9F4FDF
:1000B00016C0882311F096E911C0772321F09EE83D
:1000C000872F762F05C0662371F096E8862F70E0A3
:1000D00060E02AF09A95660F771F881FDAF7880F7D
:1000E0009695879597F9089503D008F48FEF0895B2
:1000F000990F0008550FAA0BE0E8FEEF1616170639
:10010000E807F907C0F012161306E407F50798F0A0
:10011000621B730B840B950B39F40A2661F0232BB9
:10012000242B252B21F408950A2609F4A140A69535
:0C0130008FEF811D811D0895F894FFCF12
:00000001FF
